:100290003F065B4F666D7D077F6F777C395E7971B6
:0102A000005D
:0302BE0001080034
:0B02CB00EF1FAC0670011E4C70F62205
:1001460012027AE513C4540F90029093F509E51351
:10015600540F93F50A750B40E512C4540F93F50C32
:10016600E512540F93F50D750E40E511C4540F9327
:0A017600F50FE511540F93F5102268
:10008F00E4FDEDB40800504D90009EF8282873024F
:10009F0000B60200BA0200C20200C60200CE020081
:1000AF00D20200DA0200DED2A28002C2A2D2A3D212
:1000BF00A48022D2A28002C2A2C2A3D2A48016D24E
:1000CF00A28002C2A2D2A3C2A4800AD2A28002C27C
:1000DF00A2C2A3C2A474092DF8E6F5807F647E0046
:0C00EF001202CBE4F5800DED6408709661
:0100FB0022E2
:0B02D60012022312014612008F80F874
:10024600D3EF9400EE940040147D6E7C00ED1D709B
:0D025600011CED4C70F7EF1F70E61E80E3F9
:010263002278
:1001DC00C2B77B46AF031BEF70FAD2B7FB30B71137
:1001EC007F017E001202460BEBD3940540EF7F009B
:0301FC00227F015E
:0101FF0022DD
:0C01B5001201DC7F017E001202467FCCAC
:1001C100E4FDC2B7EF1392B77E06AC061EEC70FADF
:0A01D100D2B7EFC313FF0DBD08E81D
:0101DB002201
:100200007D08C2B7D2B7A2B7E433C43333335480C6
:10021000FCEEC3134CFE7F04AC071FEC70FADDE26A
:02022000AF0627
:0102220022B9
:0F02A1001201B57F441201C17F647E0002024644
:0802E1001201B57FBE0201C14C
:10026400E4FFFE1202A11202E1120200AB07120225
:0502740000EFFEEBFFAE
:010279002262
:0E02B00081838587898B8D80828486888A8CE5
:0902C100071100001207050616E2
:10018000C2B500C2B600D2B500E4FEEF1392B4EFE0
:10019000C313FFD2B600C2B6000EBE08EEE4FEEDF9
:1001A0001392B4EDC313FDD2B600C2B6000EBE0862
:0401B000EEC2B500E6
:0101B4002228
:1000FC00C2B500C2B600D2B500E4FDEF1392B4EF66
:10010C00C313FFD2B600C2B6000DBD08EE00E4FD6D
:10011C00A2B4E433FFC43333335480FCEEC3134C2A
:10012C00FED2B600C2B6000DBD08E5C2B500D2B60F
:09013C0000C2B400D2B400AF0609
:010145002297
:10022300E4FD7F8E120180E4FCEC9002B793FF742F
:10023300112CF8E6FD1201800CBC07ED7D807F8E4A
:0302430002018035
:10027A00E4FBEB9002B093FF1200FC74112BF8A67A
:05028A00070BBB07EDAE
:01028F00224C
:03000000020003F8
:0C000300787FE4F6D8FD75811702004AF2
:10000F000202D6E493A3F8E493A34003F68001F22F
:10001F0008DFF48029E493A3F85407240CC8C333F2
:10002F00C4540F4420C8834004F456800146F6DFC1
:10003F00E4800B01020408102040809002BEE47E91
:10004F00019360BCA3FF543F30E509541FFEE493B6
:10005F00A360010ECF54C025E060A840B8E493A37D
:10006F00FAE493A3F8E493A3C8C582C8CAC583CAA8
:10007F00F0A3C8C582C8CAC583CADFE9DEE780BE60
:0102CA000033
:00000001FF
