:1000D400080800003E4141413E0008107FBFDFEFA9
:0400E400F7FBFDFE2B
:0B00E900EF1FAC0670011E4C70F622E9
:10008F00D2B6D2B5E4FEEFC4131313540124FF927A
:10009F00B4EF25E0FFC2B60000D2B60EBE08E7C22D
:0500AF00B50000D2B510
:0100B4002229
:1000B500E4FD74082DF8E6FF12008F74102DF8E6A4
:0F00C500F5807F0A7E001200E90DBD08E580E19D
:03000000020003F8
:0C000300787FE4F6D8FD75811702004AF2
:10000F000200B5E493A3F8E493A34003F68001F252
:10001F0008DFF48029E493A3F85407240CC8C333F2
:10002F00C4540F4420C8834004F456800146F6DFC1
:10003F00E4800B01020408102040809000D4E47E7D
:10004F00019360BCA3FF543F30E509541FFEE493B6
:10005F00A360010ECF54C025E060A840B8E493A37D
:10006F00FAE493A3F8E493A3C8C582C8CAC583CAA8
:10007F00F0A3C8C582C8CAC583CADFE9DEE780BE60
:0100E8000017
:00000001FF
