:10007D003F065B4F666D7D077F6F777C395E7971CB
:01008D000072
:0B00A700EF1FAC0670011E4C70F6222B
:1000030075900FE590640F60707FE87E031200A780
:10001300E590640F604B75900FAF90EF24F560107F
:1000230024FE601114601324077012E4F508800D98
:10003300750801800875080280037508037590F040
:10004300AF90EF2450600C24E0600C24F0600C248B
:1000530070800E7404800674088002740C2508F501
:1000630008E509C394325011E59064F0600B7F6496
:090073007E001200A7050980E8D7
:01007C002261
:0D008E00120003E50890007D93F58080F3DB
:0300000002009B60
:0C009B00787FE4F6D8FD75810902008E24
:00000001FF
