:030000000200FA01
:0C00FA00787FE4F6D8FD75811302014107
:08000E000210000002120000C4
:1001F400E4F589758CFF758A88D2AFD2A9D28C7543
:0C0204008DFF758B88D2AFD2ABD28E225A
:10022800D281C282C3EF9DEC6480F8EE648098505E
:0702380003D28022C28022E4
:10023F00C291D292C3EF9DEC6480F8EE6480985027
:07024F0003D29022C29022AD
:10025600C281D282C3EF9DEC6480F8EE6480985030
:0702660003D28022C28022B6
:10026D00D291C292C3EF9DEC6480F8EE64809850F9
:07027D0003D29022C290227F
:1001D6008E088F09AF03AE02AB05AA04AD0FAC0EB5
:0E01E60012023FAD03AC02AF09AE08020228C0
:0E028400120256AF03AE02AD0FAC0E02023FE7
:0A021000AB13AA127C03AF11AE106D
:0E021A00120228AF03AE02AD0FAC0E02026D51
:03000B0002018669
:10018600C0E0C0D0758CFF758A880511E511700234
:100196000510D394E8E5106480948340067510003A
:0801A600751100D0D0D0E03249
:03001B000201AE31
:1001AE00C0E0C0D0758DFF758B880513E513700206
:1001BE000512C394E8E5126480948340067512001C
:0801CE00751300D0D0D0E0321F
:10001E001201F420A41920A31620A11320A21075FA
:10002E000E02750F8AAB13AA127D8A7C02803620CF
:10003E00A41930A31620A11320A210750E03750F5C
:10004E00E8AB13AA127D017C00801A20A42020A305
:10005E001D30A11A20A217750E00750F01AB13AA41
:10006E00127DE87C03AF11AE101201D680A530A42C
:10007E001730A31420A11120A20E750E03750F20A8
:10008E00AB13AA127D20803220A41720A31430A116
:10009E001130A20E750E03750F207D201202100274
:1000AE00002130A42120A31E20A11B20A218750E12
:1000BE0003750FE8AB13AA127DE87C03AF11AE10E7
:1000CE0012028402002130A40302002130A3030295
:1000DE00002130A10302002120A203020021750E8F
:0C00EE0003750FE87DE8120210020021EB
:1001060002001EE493A3F8E493A34003F68001F2F1
:1001160008DFF48029E493A3F85407240CC8C333FA
:10012600C4540F4420C8834004F456800146F6DFC9
:10013600E4800B010204081020408090000EE47E4B
:10014600019360BCA3FF543F30E509541FFEE493BE
:10015600A360010ECF54C025E060A840B8E493A385
:10016600FAE493A3F8E493A3C8C582C8CAC583CAB0
:10017600F0A3C8C582C8CAC583CADFE9DEE780BE68
:0100160000E9
:00000001FF
