:0A02CC003F065B4F666D7D077F6FF4
:0302E000010C000E
:040295007FE87E037D
:0B029900EF1FAC0670011E4C70F62237
:1001690020B11012029520B107AD0C7F0112027C5B
:1001790030B1FD20B01012029520B0077F011202A4
:100189005A8F0C30B0FD20B21512029520B20C0521
:100199000CE50CD394FF4003E4F50C30B2FD30B309
:0E01A9000C12029520B303E4F50C30B3FD22D6
:10008F00E50CFB7C037DE8FF7E0012011474CC2F7E
:10009F00F58274023EF583E493F5087C037DE8AFA7
:1000AF00037E00120114AA04AB057D647C00AF032C
:1000BF00AE0212011474CC2FF58274023EF583E464
:1000CF0093F5097D647C00AF03AE02120114AA04FC
:1000DF00AB057D0A7C00AF03AE0212011474CC2F66
:1000EF00F58274023EF583E493F50A7D0A7C00AF36
:1000FF0003AE0212011474CC2DF58274023CF58309
:05010F00E493F50B2252
:1001F800E4FDED14600E14601314601424037016EB
:10020800D2A28002C2A2D2A3C2A4800AD2A2800231
:10021800C2A2C2A3C2A474082DF8E6F5807F647E4A
:0B02280000120299E4F5800DBD04C730
:0102330022A8
:0B02C10012016912008F1201F880F595
:0502B3001202B8D2A107
:0802B8007F017E02DEFEDFFA89
:0102C000221B
:0F02A400D2A01202B3C2A01202B8C2A10202B8C5
:0A02D600C2A01202B3D2A00202B8C7
:0201B700AD0792
:1001B900E4FBFAEDC4131313540124FF92A0ED25B7
:1001C900E0FD1202B3C2A11202B80BBB08E5D2A02E
:1001D9001202B8D2A130A00F0AEAD394C840F6C2DD
:0E01E900A11202B87F0022C2A11202B87F014B
:0101F70022E5
:10023400E4FDFCD2A01202B8D2A11202B8EC25E06F
:10024400FCA2A0E43342041202B8C2A11202B80D07
:05025400BD08E5AF0448
:010259002282
:10027C00AC05A9071202A47FA01201B7AF011201AD
:09028C00B7AF041201B70202D65B
:02025A00AC07EF
:10025C001202A47FA01201B7AF041201B71202A4BC
:0F026C007FA11201B7120234AD071202D6AF05FF
:01027B002260
:03000000020003F8
:0C000300787FE4F6D8FD75810C02004AFD
:10011400BC000BBE0029EF8DF084FFADF022E4CCCF
:10012400F875F008EF2FFFEE33FEEC33FCEE9DEC98
:10013400984005FCEE9DFE0FD5F0E9E4CEFD22EDDE
:10014400F8F5F0EE8420D21CFEADF075F008EF2F28
:10015400FFED33FD4007985006D5F0F222C398FD19
:050164000FD5F0EA22B6
:10000F000202C1E493A3F8E493A34003F68001F244
:10001F0008DFF48029E493A3F85407240CC8C333F2
:10002F00C4540F4420C8834004F456800146F6DFC1
:10003F00E4800B01020408102040809002E0E47E6F
:10004F00019360BCA3FF543F30E509541FFEE493B6
:10005F00A360010ECF54C025E060A840B8E493A37D
:10006F00FAE493A3F8E493A3C8C582C8CAC583CAA8
:10007F00F0A3C8C582C8CAC583CADFE9DEE780BE60
:0102E300001A
:00000001FF
