:0A05DD003F065B4F666D7D077F6FE0
:0305F700010800F8
:0B05C700EF1FAC0670011E4C70F62206
:04035900AB07AA063E
:10035D00C3EA648094805027750940EB1B70011A25
:10036D006303FF6302FFAD03AC02EC1202068F14B0
:10037D008E138D128C11E4FFFE7D807C3D801AE47E
:10038D00F509AD03AC02EC1202068F148E138D121B
:10039D008C11E4FFFE7DC87C40AB14AA13A912A8F2
:1003AD00111200FBE4FBFAF9783F12000A12023F2A
:1003BD00AA06AB077C277D10AF03AE021202C07EEA
:1003CD00037FE8CFCDCFCECCCE1202C074DD2FF59A
:1003DD008274053EF583E493F50A7C037DE8AF0353
:1003ED00AE021202C07E007F64CFCDCFCECCCE1236
:1003FD0002C074DD2FF58274053EF583E493F50B91
:10040D007C007D64AF03AE021202C07E007F0ACF76
:10041D00CDCFCECCCE1202C074DD2FF58274053E49
:10042D00F583E493F50CAE02AF037C007D0A120256
:0F043D00C074DD2DF58274053CF583E493F50D55
:01044C00228D
:1004D900E4FDED14601414601914601A14601F14FB
:1004E900602024057022D2A28002C2A2D2A3D2A483
:1004F9008016D2A28002C2A2C2A3D2A4800AD2A22A
:100509008002C2A2D2A3C2A474092DF8E6F5807FA5
:0D051900327E001205C7E4F5800DBD06B569
:0105260022B2
:0B05D2001205B11203591204D980F584
:10059300D3EF9400EE940040147D6E7C00ED1D704B
:0D05A300011CED4C70F7EF1F70E61E80E3A9
:0105B0002228
:10054E00C2B77B46AF031BEF70FAD2B7FB30B711C1
:10055E007F017E001205930BEBD3940540EF7F00D5
:03056E00227F01E8
:010571002267
:0C05270012054E7F017E001205937FCC70
:10053300E4FDC2B7EF1392B77E06AC061EEC70FA69
:0A054300D2B7EFC313FF0DBD08E8A7
:01054D00228B
:100572007D08C2B7D2B7A2B7E433C4333333548051
:10058200FEEFC3134EFF7E04AC061EEC70FADDE2F2
:010592002246
:0805E7001205277F44020533D1
:0805EF001205277FBE0205334F
:1005B100E4FFFE1205E71205EF120572AB07120503
:0505C10072EFFEEBFFEC
:0105C6002212
:100003000202ABE86480F8E933E83360110460F07E
:10001300ED33EC337009E8FCE9FDEAFEEBFF220463
:1000230060DED3EB9FEA9EE99DE8C2E78CF0C2F75E
:1000330095F0400CE8CCF8E9CDF9EACEFAEBCFFB2A
:1000430012027685D0F05804700320D5B3E804700B
:10005300075002B2D50202B592D5EC0460F7E4CCA6
:10006300C0E0C398F8603B94186008400DD0E0FBF3
:1000730002028DE4FBFAC9FC8028E830E406E4C9F7
:10008300FBE4CAFCE830E305E4C9CACBFCE8540747
:100093006010F8C3E913F9EA13FAEB13FBEC13FC52
:1000A300D8F130F52FC3E49CFCEF9BFFEE9AFEEDF5
:1000B30099FDD0E0FBEF4E4D4C701222DB030202A0
:1000C300B2EC2CFCEF33FFEE33FEED33FDED30E706
:1000D300EB02028DEF2BFFEE3AFEED39FDD0E0FB94
:1000E30050130BBB00030202B5ED13FDEE13FEEF3D
:0800F30013FFEC13FC02028D67
:1000FB00EC4D6011E8497017ED33EC3304600DE4FF
:10010B00FCFFFEFD22E933E8330470F80202AB1268
:10011B00027658046009E4CC248150062850090269
:10012B0002B52840030202B2C0E0EB4A7044B9802A
:10013B0006D0E0FB0202A1EF4E701CBD8008EBFF66
:10014B00EAFEE9FD80EBE98DF0A4FEE5F00201E4A7
:10015B00E9CDF9EAFEEBFFEF89F0A4FCE5F0CE89DF
:10016B00F0A42EFFE435F0CD89F0A42DFEE435F09C
:10017B008067EF4E7005BD80D780C3EF8BF0A4ACCA
:10018B00F0EE8BF0A42CFCE435F0F8EF8AF0A42C05
:10019B00E5F038FCE433CB8DF0A42CFCE5F03BF818
:1001AB00EE8AF0A42CFCE5F038F8E433CF89F0A408
:1001BB002CFCE5F038CF3400CE89F0A42FFFE5F00E
:1001CB003EFEE433C98DF0A42EFEE5F039CD8AF066
:1001DB00A42FFFE5F03EFEE43DFD33D0E0FB5007DE
:1001EB000BBB000F0202B5EC2CFCEF33FFEE33FE22
:0601FB00ED33FD02028D50
:1002010075F020800E75F010800575F0087D007E78
:10021100007F003392D530D5031202F6EC33401043
:10022100EF33FFEE33FEED33FDEC33FCD5F0ED2281
:0E023100E5F0247EA2D513CC92E7CDCEFF22BD
:10023F00EDD2E7CD33EC3392D524814006E4FFFEB7
:10024F00FDFC22FCE4CFCECDCC24E0501174FF8016
:10025F00EDC3CC13CCCD13CDCE13CECF13CF0470B3
:07026F00F030D5DE0202F6BB
:10027600E9D2E7C933E833F892D5EDD2E7CD33ECCE
:0702860033FC5002B2D52247
:10028D00EC30E7100FBF000C0EBE00080DBD0004D2
:10029D000BEB6014A2D5EB13FCED92E7FD2274FF7E
:1002AD00FCFDFEFF22E480F8A2D574FF13FC7D80D7
:0302BD00E480EFEB
:0300000002044DAA
:0C044D00787FE4F6D8FD75811402049459
:1002C000C2D5EC30E709B2D5E4C39DFDE49CFCEE59
:1002D00030E715B2D5E4C39FFFE49EFE120304C3CA
:1002E000E49DFDE49CFC800312030430D507C3E4C5
:0602F0009FFFE49EFE22C8
:0E02F600C3E49FFFE49EFEE49DFDE49CFC2219
:100459000205D2E493A3F8E493A34003F68001F2E2
:1004690008DFF48029E493A3F85407240CC8C333A4
:10047900C4540F4420C8834004F456800146F6DF73
:10048900E4800B01020408102040809005F7E47E07
:10049900019360BCA3FF543F30E509541FFEE49368
:1004A900A360010ECF54C025E060A840B8E493A32F
:1004B900FAE493A3F8E493A3C8C582C8CAC583CA5A
:1004C900F0A3C8C582C8CAC583CADFE9DEE780BE12
:0105FA000000
:10030400BC000BBE0029EF8DF084FFADF022E4CCDD
:10031400F875F008EF2FFFEE33FEEC33FCEE9DECA6
:10032400984005FCEE9DFE0FD5F0E9E4CEFD22EDEC
:10033400F8F5F0EE8420D21CFEADF075F008EF2F36
:10034400FFED33FD4007985006D5F0F222C398FD27
:050354000FD5F0EA22C4
:00000001FF
