:0F000300438910758DFFD28FD2ABD2AFD28E2230
:10001E00120003D3E50B9464E50A9400401BE4F54B
:10002E000AF50B3000080509E509700205082000E5
:10003E0008E509150970021508E509B4E807E50891
:10004E00B40302C200E50945087002D200D3E50DE3
:10005E0094E8E50C94034005E4F50CF50DC3E50DAD
:10006E009509E50C95085004D2A180A7C2A180A3E2
:03001B000200BE22
:1000BE00C0E0758DFF758BFF050DE50D7002050C0B
:0B00CE00050BE50B7002050AD0E032C4
:1000A200C2B6E4FEEFC4131313540124FF92B4EF5B
:0B00B20025E0FFC2B6D2B60EBE08E982
:0100BD002220
:10007E00E4FFFEC2B6FDFCEF25E0FFEE33FED2B686
:10008E00C2B6A2B7E43342070DBD00010CED640CFD
:03009E004C70E4BF
:0100A100223C
:1000D900C2B6C2B51200A27F06DFFED2B60000C2C8
:0800E900B6000012007ED2B542
:0100F10022EC
:030000000200F209
:0C00F200787FE4F6D8FD75812002001E26
:00000001FF
